{"abi":[{"type":"function","name":"createGluonReactor","inputs":[{"name":"_tokenAddress","type":"address","internalType":"address"},{"name":"_neutronName","type":"string","internalType":"string"},{"name":"_neutronSymbol","type":"string","internalType":"string"},{"name":"_protonName","type":"string","internalType":"string"},{"name":"_protonSymbol","type":"string","internalType":"string"},{"name":"_denominator","type":"uint256","internalType":"uint256"},{"name":"_treasury","type":"address","internalType":"address"},{"name":"_initialTreasuryFee","type":"uint256","internalType":"uint256"},{"name":"_treasuryRevenueTarget","type":"uint256","internalType":"uint256"},{"name":"_criticalRatio","type":"uint256","internalType":"uint256"},{"name":"_targetRatio","type":"uint256","internalType":"uint256"},{"name":"_feeFission","type":"uint256","internalType":"uint256"},{"name":"_feeFusion","type":"uint256","internalType":"uint256"},{"name":"_decayRate","type":"uint256","internalType":"uint256"},{"name":"_vaultFee","type":"uint256","internalType":"uint256"},{"name":"_vaultCreatorFee","type":"uint256","internalType":"uint256"},{"name":"_stableOrderFee","type":"uint256","internalType":"uint256"}],"outputs":[],"stateMutability":"payable"},{"type":"function","name":"getGluonReactors","inputs":[],"outputs":[{"name":"","type":"address[]","internalType":"contract GluonReactor[]"}],"stateMutability":"view"},{"type":"function","name":"gluonReactors","inputs":[{"name":"","type":"uint256","internalType":"uint256"}],"outputs":[{"name":"","type":"address","internalType":"contract GluonReactor"}],"stateMutability":"view"},{"type":"event","name":"GluonReactorCreated","inputs":[{"name":"reactorAddress","type":"address","indexed":true,"internalType":"address"}],"anonymous":false}],"bytecode":{"object":"0x6080806040523460155761421c908161001a8239f35b5f80fdfe60806040526004361015610011575f80fd5b5f3560e01c80634a7e2a90146103365780635d6a5bda146101045763c8b91ea91461003a575f80fd5b34610100575f366003190112610100576040518060205f54928381520180925f80527f290decd9548b62a8d60345a988386fc84ba6bc95484008f6362f93160ef3e563905f5b8181106100e157505050816100969103826103a1565b604051918291602083019060208452518091526040830191905f5b8181106100bf575050500390f35b82516001600160a01b03168452859450602093840193909201916001016100b1565b82546001600160a01b0316845260209093019260019283019201610080565b5f80fd5b610220366003190112610100576004356001600160a01b038116908190036101005760243567ffffffffffffffff8111610100576101469036906004016103c3565b9060443567ffffffffffffffff8111610100576101679036906004016103c3565b9060643567ffffffffffffffff8111610100576101889036906004016103c3565b9060843567ffffffffffffffff8111610100576101a99036906004016103c3565b60c4356001600160a01b0381169391908490036101005760405195613da9928388019488861067ffffffffffffffff87111761031757889761020a61022694610218936102349861043e8d39895261022060208a0152610220890190610419565b908782036040890152610419565b908582036060870152610419565b908382036080850152610419565b9160a43560a083015260c082015260e43560e082015261010435610100820152610124356101208201526101443561014082015261016435610160820152610184356101808201526101a4356101a08201526101c4356101c08201526101e4356101e082015261020061020435910152039034f0801561032b575f5468010000000000000000811015610317578060016102d092015f55610377565b81546001600160a01b0393841660039290921b82811b94901b19169290921790557f3e5b3d50e95b6987cb9a83b563d93dc60682b53510c9565f207c8d12eef794d05f80a2005b634e487b7160e01b5f52604160045260245ffd5b6040513d5f823e3d90fd5b34610100576020366003190112610100576004355f548110156101005761035e602091610377565b905460405160039290921b1c6001600160a01b03168152f35b5f5481101561038d575f805260205f2001905f90565b634e487b7160e01b5f52603260045260245ffd5b90601f8019910116810190811067ffffffffffffffff82111761031757604052565b81601f820112156101005780359067ffffffffffffffff821161031757604051926103f8601f8401601f1916602001856103a1565b8284526020838301011161010057815f926020809301838601378301015290565b805180835260209291819084018484015e5f828201840152601f01601f191601019056fe6101c080604052613da98038038091610018828561048b565b833981016102208282031261048757610030826104ae565b60208301519092906001600160401b03811161048757826100529183016104c2565b60408201516001600160401b03811161048757836100719184016104c2565b60608301519092906001600160401b03811161048757846100939183016104c2565b6080820151909490926001600160401b038411610487576100b88392889584016104c2565b60a0830151956100ca60c085016104ae565b9260e08501519161010086015190610120870151938b610140890151946101608a01519c8a610180810151936102006101e06101c06101a08501519401519e01519e01519e60015f555f600355670de0b6b3a76400006101a052606460075560018060a01b031660c05260405190610baf8083019280841060018060401b0385111761047357806101656131fa95848784398c8a309261053b565b03905ff080156104685760805260405192818401906001600160401b038211858310176104735784938f919361019e948639309261053b565b03905ff09384156104685760209f60209a61024b9a60219a8f9961021c9a60279a60a05260e0526101005261012052426006556004556101405261016052610180526005556101a05260405196879166029ba30b5b2b2160cd1b828401528051918291018484015e81015f838201520301601f19810186528561048b565b604051998a91607360f81b828401528051918291018484015e81015f838201520301601f19810189528861048b565b6040516114f1979091906001600160401b038984019081119084111761047357878787878c8f61028696899883611d098b3933938a01610575565b03905ff0968715610468576021602098926102ef602761031e948c9660018060a01b031660018060a01b031960015416176001556040519c8d9166029ba30b5b2b2160cd1b828401528051918291018484015e81015f838201520301601f1981018c528b61048b565b604051938491607360f81b828401528051918291018484015e81015f838201520301601f19810183528261048b565b60405197868901916001600160401b0383118a84101761047357899861034a98611d098b393393610575565b03905ff0801561046857600280546001600160a01b0319166001600160a01b039290921691909117905560405161173690816105d382396080518181816104f701528181610bb101528181610ed1015281816112240152818161136e01526115f5015260a0518181816105610152818161090001528181610c100152818161129901526116a1015260c05181818161043e015281816108bb0152610d0a015260e05181610f2f0152610100518181816103840152610f9d01526101205181818161034601526107ec01526101405181818161023c015281816111ba01526113460152610160518181816102b2015261047e0152610180518181816102770152610b5f01526101a0518181816104c301528181610acd0152610b380152f35b6040513d5f823e3d90fd5b634e487b7160e01b5f52604160045260245ffd5b5f80fd5b601f909101601f19168101906001600160401b0382119082101761047357604052565b51906001600160a01b038216820361048757565b81601f82011215610487578051906001600160401b03821161047357604051926104f6601f8401601f19166020018561048b565b8284526020838301011161048757815f9260208093018386015e8301015290565b805180835260209291819084018484015e5f828201840152601f01601f1916010190565b9161056590610557604093969596606086526060860190610517565b908482036020860152610517565b6001600160a01b03909416910152565b94916105a59061059760e098959b9a9996936101008952610100890190610517565b908782036020890152610517565b6001600160a01b03998a16604087015290891660608601529716608084015260a083015260c0820152015256fe6080806040526004361015610012575f80fd5b5f905f3560e01c90816318def8ef1461109d575080632dca6d3e14611083578063383830281461104d578063431a6497146110325780634980e1be146110175780635499f02714610ffa5780635a08bd1714610fdd5780635b239d3714610fc05780635f00248e14610f8657806361396e0114610f5e57806361d027b314610f1a57806371ca337d14610f005780637510ecba14610ebc578063824769f814610e9f5780638d17d91f14610af057806396ce079514610ab5578063986fcbe91461092f5780639d4610c8146108ea5780639d76ea58146108a55780639f8a13d714610866578063a7cac8461461082d578063a9c1f2f11461080f578063b364e37c146107d4578063b645b813146103de578063c292c2ba146103ba578063cc32d1761461032c578063cfed246b146102f3578063d14e0a6d146102d5578063d84636311461029a578063dc1392911461025f578063dcef609c14610224578063e4ea945d146101fb578063e9c98e68146101c25763f4396e2a14610194575f80fd5b346101bf5760203660031901126101bf5760206101b76101b26110d4565b611479565b604051908152f35b80fd5b50346101bf5760203660031901126101bf576020906040906001600160a01b036101ea6110d4565b168152600a83522054604051908152f35b50346101bf57806003193601126101bf576001546040516001600160a01b039091168152602090f35b50346101bf57806003193601126101bf5760206040517f00000000000000000000000000000000000000000000000000000000000000008152f35b50346101bf57806003193601126101bf5760206040517f00000000000000000000000000000000000000000000000000000000000000008152f35b50346101bf57806003193601126101bf5760206040517f00000000000000000000000000000000000000000000000000000000000000008152f35b50346101bf57806003193601126101bf576020600e54604051908152f35b50346101bf5760203660031901126101bf576020906040906001600160a01b0361031b6110d4565b168152600883522054604051908152f35b50346101bf57806003193601126101bf57600354602091907f0000000000000000000000000000000000000000000000000000000000000000808210610376575050604051908152f35b6103b592506103af906103aa7f0000000000000000000000000000000000000000000000000000000000000000938461110d565b611120565b90611100565b6101b7565b50346101bf5760203660031901126101bf5760206101b76103d96110d4565b61141b565b50346101bf5760803660031901126101bf576103f86110d4565b602435906104046110ea565b5061040d6116e2565b610415611174565b6040516323b872dd60e01b815233600482015230602482015260448101839052602081606481877f00000000000000000000000000000000000000000000000000000000000000006001600160a01b03165af19081156107c957849161079a575b5015610764577f000000000000000000000000000000000000000000000000000000000000000060010360018111610750576104c16104bb6104e89260443590611100565b8461110d565b7f000000000000000000000000000000000000000000000000000000000000000090611120565b6040516318160ddd60e01b81527f00000000000000000000000000000000000000000000000000000000000000006001600160a01b03169190602081600481865afa908115610745578691610711575b5061054661054d918361110d565b4790611120565b6040516318160ddd60e01b815290919086907f00000000000000000000000000000000000000000000000000000000000000006001600160a01b031690602081600481855afa9081156106c55783916106d4575b506105466105af918561110d565b94803b156106d0576040516340c10f1960e01b81526001600160a01b0388166004820152602481018690529083908290604490829084905af19081156106c55783916106b0575b5050803b156106ac576040516340c10f1960e01b81526001600160a01b0387166004820152602481018690529082908290604490829084905af180156106a157610688575b505060405194855260208501526040840152606083015260018060a01b0316907fe406915b85381d5967276fb2838d9d2b83aa573fb2b9d65d1cb1619d1728b21560803392a36001815580f35b816106929161113e565b61069d57855f61063b565b8580fd5b6040513d84823e3d90fd5b5080fd5b816106ba9161113e565b6106ac57815f6105f6565b6040513d85823e3d90fd5b8280fd5b9250506020823d602011610709575b816106f06020938361113e565b810103126107055790518791906105466105a1565b5f80fd5b3d91506106e3565b90506020813d60201161073d575b8161072c6020938361113e565b810103126107055751610546610538565b3d915061071f565b6040513d88823e3d90fd5b634e487b7160e01b84526011600452602484fd5b60405162461bcd60e51b815260206004820152600e60248201526d119a5cdcda5bdb8819985a5b195960921b6044820152606490fd5b6107bc915060203d6020116107c2575b6107b4818361113e565b810190611403565b5f610476565b503d6107aa565b6040513d86823e3d90fd5b50346101bf57806003193601126101bf5760206040517f00000000000000000000000000000000000000000000000000000000000000008152f35b50346101bf57806003193601126101bf576020600554604051908152f35b50346101bf5760203660031901126101bf576020906040906001600160a01b036108556110d4565b168152600983522054604051908152f35b50346101bf5760203660031901126101bf5760209060ff906040906001600160a01b036108916110d4565b168152600b84522054166040519015158152f35b50346101bf57806003193601126101bf576040517f00000000000000000000000000000000000000000000000000000000000000006001600160a01b03168152602090f35b50346101bf57806003193601126101bf576040517f00000000000000000000000000000000000000000000000000000000000000006001600160a01b03168152602090f35b50346101bf5760203660031901126101bf57600f548190610958906001600160a01b031661141b565b60015b600560ff821610610a6057506005821015610a4c5781600f019060018060a01b038254169061098933611479565b908111610994578480f35b3385526008602052600435604086205533855260096020526040852055338452600a60205242604085205542600d55338452600b60205260ff6040852054165f146109ed57505050338152600c6020525b5f8080808480f35b8352600b6020526040832060ff198154169055338352600b60205260408320600160ff19825416179055336bffffffffffffffffffffffff60a01b825416179055338252600c60205260ff60408320911660ff198254161790556109e5565b634e487b7160e01b83526032600452602483fd5b6005811015610aa157600f810154610a80906001600160a01b031661141b565b828110610a94575b5060010160ff1661095b565b9092509050816001610a88565b634e487b7160e01b84526032600452602484fd5b50346101bf57806003193601126101bf5760206040517f00000000000000000000000000000000000000000000000000000000000000008152f35b5034610705576080366003190112610705576024356001600160a01b0381169060043582820361070557610b226110ea565b50610b2b6116e2565b610b33611174565b610b5d7f00000000000000000000000000000000000000000000000000000000000000008261110d565b7f00000000000000000000000000000000000000000000000000000000000000006001039060018211610e8b57610b9a610ba09260443590611100565b90611120565b6040516318160ddd60e01b815290927f00000000000000000000000000000000000000000000000000000000000000006001600160a01b031691602081600481865afa908115610e18575f91610e57575b50610546610bff918661110d565b6040516318160ddd60e01b815290947f00000000000000000000000000000000000000000000000000000000000000006001600160a01b031691602081600481865afa908115610e18575f91610e23575b5061054690610c5e9261110d565b92803b1561070557604051632770a7eb60e21b815233600482015260248101879052905f908290604490829084905af18015610e1857610e03575b50803b15610dff57604051632770a7eb60e21b81523360048201526024810184905290879081908390604490829084905af1918215610df2578592610dd9575b505060405163a9059cbb60e01b81526001600160a01b039092166004830152602482015260208180604481010381897f00000000000000000000000000000000000000000000000000000000000000006001600160a01b03165af1908115610745578691610dba575b5015610d8557604051928352602083015260408201527fed31732d029e200b018bdae2aff00a7c02bbc9ee3116c77a558a50af7c9a8ef560603392a36001815580f35b60405162461bcd60e51b815260206004820152600d60248201526c119d5cda5bdb8819985a5b1959609a1b6044820152606490fd5b610dd3915060203d6020116107c2576107b4818361113e565b5f610d42565b81925090610de69161113e565b61069d5782865f610cd9565b50604051903d90823e3d90fd5b8680fd5b610e109197505f9061113e565b5f955f610c99565b6040513d5f823e3d90fd5b90506020813d602011610e4f575b81610e3e6020938361113e565b810103126107055751610c5e610c50565b3d9150610e31565b90506020813d602011610e83575b81610e726020938361113e565b810103126107055751610546610bf1565b3d9150610e65565b634e487b7160e01b5f52601160045260245ffd5b34610705575f366003190112610705576020600354604051908152f35b34610705575f366003190112610705576040517f00000000000000000000000000000000000000000000000000000000000000006001600160a01b03168152602090f35b34610705575f3660031901126107055760206101b7611337565b34610705575f366003190112610705576040517f00000000000000000000000000000000000000000000000000000000000000006001600160a01b03168152602090f35b34610705575f366003190112610705576002546040516001600160a01b039091168152602090f35b34610705575f3660031901126107055760206040517f00000000000000000000000000000000000000000000000000000000000000008152f35b34610705575f366003190112610705576020600654604051908152f35b34610705575f366003190112610705576020600454604051908152f35b34610705575f366003190112610705576020600754604051908152f35b34610705575f36600319011261070557602047604051908152f35b34610705575f36600319011261070557602060405160058152f35b3461070557602036600319011261070557600435600581101561070557600f01546040516001600160a01b039091168152602090f35b34610705575f3660031901126107055761109b611174565b005b34610705576020366003190112610705576020906001600160a01b036110c16110d4565b165f52600c825260ff60405f2054168152f35b600435906001600160a01b038216820361070557565b606435906001600160a01b038216820361070557565b91908203918211610e8b57565b81810292918115918404141715610e8b57565b811561112a570490565b634e487b7160e01b5f52601260045260245ffd5b90601f8019910116810190811067ffffffffffffffff82111761116057604052565b634e487b7160e01b5f52604160045260245ffd5b60065461119a6104c16111885f9342611100565b611195476005549061110d565b61110d565b806111a3575050565b6111de6111ae611337565b6103af600454610b9a817f0000000000000000000000000000000000000000000000000000000000000000611100565b908160010360018111610e8b57816112076111ff6112159461120d9461110d565b610b9a6115cd565b9361110d565b610b9a61166d565b60015490916001600160a01b037f00000000000000000000000000000000000000000000000000000000000000008116921690823b15610705576040516340c10f1960e01b81526001600160a01b039290921660048301526024820152905f908290604490829084905af18015610e1857611322575b506002546001600160a01b037f000000000000000000000000000000000000000000000000000000000000000081169116813b1561131e576040516340c10f1960e01b81526001600160a01b03919091166004820152602481019290925282908290604490829084905af180156106a157611309575b505042600655565b61131482809261113e565b6101bf5780611301565b8380fd5b61132f9192505f9061113e565b5f905f61128b565b6040516318160ddd60e01b81527f0000000000000000000000000000000000000000000000000000000000000000906020816004817f00000000000000000000000000000000000000000000000000000000000000006001600160a01b03165afa908115610e18575f916113d1575b5080800460011481151715610e8b576113c0904790611120565b808210156113cc575090565b905090565b90506020813d6020116113fb575b816113ec6020938361113e565b8101031261070557515f6113a6565b3d91506113df565b90816020910312610705575180151581036107055790565b6001600160a01b03165f90815260096020908152604080832054600a909252909120546114489042611100565b60075480600502906005820403610e8b5761146291611120565b60010360018111610e8b576114769161110d565b90565b6002546040516370a0823160e01b81526001600160a01b039283166004820181905292909160209183916024918391165afa908115610e18575f9161159b575b506001546040516370a0823160e01b81526004810193909352602090839060249082906001600160a01b03165afa918215610e18575f92611565575b5061151661150e61151f9261150861166d565b9061110d565b611508611337565b916115086115cd565b611527611337565b60010360018111610e8b5761153b9161110d565b80820190818311610e8b57611476928181111561155c57906103af91611100565b6103af91611100565b9091506020813d602011611593575b816115816020938361113e565b810103126107055751906115166114f5565b3d9150611574565b90506020813d6020116115c5575b816115b66020938361113e565b8101031261070557515f6114b9565b3d91506115a9565b6115df6115d8611337565b479061110d565b6040516318160ddd60e01b8152906020826004817f00000000000000000000000000000000000000000000000000000000000000006001600160a01b03165afa908115610e18575f91611637575b6114769250611120565b90506020823d602011611665575b816116526020938361113e565b810103126107055761147691519061162d565b3d9150611645565b611675611337565b60010360018111610e8b5761168b90479061110d565b6040516318160ddd60e01b8152906020826004817f00000000000000000000000000000000000000000000000000000000000000006001600160a01b03165afa908115610e18575f91611637576114769250611120565b60025f54146116f15760025f55565b633ee5aeb560e01b5f5260045ffdfea26469706673582212202b76f1de9dde6ad2cd30353cbeacd048c08ce7d1f6ff1796827af6c36d431bee64736f6c634300081a003361012060405234610461576114f18038038061001a81610465565b9283398101610100828203126104615781516001600160401b038111610461578161004691840161048a565b602083015190916001600160401b0382116104615761006691840161048a565b90610073604084016104db565b61007f606085016104db565b61008b608086016104db565b9160a08601519460e060c08801519701519480519060018060401b0382116103645760035490600182811c92168015610457575b60208310146103465781601f8493116103e9575b50602090601f8311600114610383575f92610378575b50508160011b915f199060031b1c1916176003555b8051906001600160401b0382116103645760045490600182811c9216801561035a575b60208310146103465781601f8493116102d8575b50602090601f8311600114610272575f92610267575b50508160011b915f199060031b1c1916176004555b600580546001600160a01b0319166001600160a01b039290921691909117905560805260a05260c082905260e083905261012c81111561025d57915b810180911161024957600a8101908181116102495760090190811161024957600a90048082111561024257505b6101005260405161100190816104f082396080518181816101180152610c88015260a0518181816106c90152610c55015260c05181818161088f01528181610aec0152610d50015260e05181818161033501528181610b480152610ddd0152610100518181816104c401528181610b110152610db60152f35b90506101c9565b634e487b7160e01b5f52601160045260245ffd5b5061012c9161019c565b015190505f8061014b565b60045f9081528281209350601f198516905b8181106102c057509084600195949392106102a8575b505050811b01600455610160565b01515f1960f88460031b161c191690555f808061029a565b92936020600181928786015181550195019301610284565b60045f529091507f8a35acfbc15ff81a39ae7d344fd709f28e8600b4aa8c65c6b64bfe7fe36bd19b601f840160051c8101916020851061033c575b90601f859493920160051c01905b81811061032e5750610135565b5f8155849350600101610321565b9091508190610313565b634e487b7160e01b5f52602260045260245ffd5b91607f1691610121565b634e487b7160e01b5f52604160045260245ffd5b015190505f806100e9565b60035f9081528281209350601f198516905b8181106103d157509084600195949392106103b9575b505050811b016003556100fe565b01515f1960f88460031b161c191690555f80806103ab565b92936020600181928786015181550195019301610395565b60035f529091507fc2575a0e9e593c00f959f8c92f12db2869c3395a3b0502d05e2516446f71f85b601f840160051c8101916020851061044d575b90601f859493920160051c01905b81811061043f57506100d3565b5f8155849350600101610432565b9091508190610424565b91607f16916100bf565b5f80fd5b6040519190601f01601f191682016001600160401b0381118382101761036457604052565b81601f82011215610461578051906001600160401b038211610364576104b9601f8301601f1916602001610465565b928284526020838301011161046157815f9260208093018386015e8301015290565b51906001600160a01b03821682036104615756fe6080806040526004361015610012575f80fd5b5f3560e01c90816301ac145b1461087a5750806306fdde03146107bf578063095ea7b31461073d57806311df99951461071557806318160ddd146106f85780631a3e3603146106b45780631ec89cdd146105e15780631f6b6d00146105c757806323b872dd146104e757806324425cf7146104ad578063313ce5671461049257806339b70548146103b157806365400e1a1461038f57806370a082311461035857806372301b551461031e578063918f86741461030157806395d89b41146101fd578063a2e64137146101cc578063a9059cbb1461019b578063dd62ed3e1461014b5763fe3a6d8814610103575f80fd5b34610147575f366003190112610147576040517f00000000000000000000000000000000000000000000000000000000000000006001600160a01b03168152602090f35b5f80fd5b34610147576040366003190112610147576101646108dc565b61016c6108f2565b6001600160a01b039182165f908152600160209081526040808320949093168252928352819020549051908152f35b34610147576040366003190112610147576101c16101b76108dc565b6024359033610d1f565b602060405160018152f35b346101475760203660031901126101475760606101ea600435610aea565b9060405192835260208301526040820152f35b34610147575f366003190112610147576040515f6004548060011c906001811680156102f7575b6020831081146102e3578285529081156102bf5750600114610261575b61025d8361025181850382610908565b604051918291826108b2565b0390f35b91905060045f527f8a35acfbc15ff81a39ae7d344fd709f28e8600b4aa8c65c6b64bfe7fe36bd19b915f905b8082106102a557509091508101602001610251610241565b91926001816020925483858801015201910190929161028d565b60ff191660208086019190915291151560051b840190910191506102519050610241565b634e487b7160e01b5f52602260045260245ffd5b91607f1691610224565b34610147575f366003190112610147576020604051620186a08152f35b34610147575f3660031901126101475760206040517f00000000000000000000000000000000000000000000000000000000000000008152f35b34610147576020366003190112610147576001600160a01b036103796108dc565b165f525f602052602060405f2054604051908152f35b34610147575f3660031901126101475760206103a9610a30565b604051908152f35b34610147576040366003190112610147576103ca6108dc565b6024359081620186a002620186a08104830361047e576103f2906103ec610951565b90610a12565b6005546040516323b872dd60e01b602082015233602482015230604482015260648082018690528152610438916001600160a01b0316610433608483610908565b610eba565b6104428183610e30565b604051928352602083015260018060a01b0316907f58ad07e04242041e735af971af7db7399c4deb8fae2551daa6bd2a86be3cf1bd60403392a3005b634e487b7160e01b5f52601160045260245ffd5b34610147575f36600319011261014757602060405160128152f35b34610147575f3660031901126101475760206040517f00000000000000000000000000000000000000000000000000000000000000008152f35b34610147576060366003190112610147576105006108dc565b6105086108f2565b6001600160a01b0382165f818152600160208181526040808420338552909152909120549193604435939290918101610547575b506101c19350610d1f565b8381106105ac578415610599573315610586576101c1945f52600160205260405f2060018060a01b0333165f526020528360405f20910390558461053c565b634a1406b160e11b5f525f60045260245ffd5b63e602df0560e01b5f525f60045260245ffd5b8390637dc7a0d960e11b5f523360045260245260445260645ffd5b34610147575f3660031901126101475760206103a9610951565b346101475760203660031901126101475760043580600254111561065b578061060c60209233610ba5565b90610622823360018060a01b0360055416610ce4565b60405190828252838201527f28d28282af26c5c686202fe408f815b53eaec6cebc97f60a54f17a50f240225160403392a2604051908152f35b60405162461bcd60e51b815260206004820152602b60248201527f537570706c79206f6620686f646c436f696e732073686f756c64206e6f74206260448201526a32b1b7b6b2903d32b9379760a91b6064820152608490fd5b34610147575f366003190112610147576040517f00000000000000000000000000000000000000000000000000000000000000006001600160a01b03168152602090f35b34610147575f366003190112610147576020600254604051908152f35b34610147575f366003190112610147576005546040516001600160a01b039091168152602090f35b34610147576040366003190112610147576107566108dc565b602435903315610599576001600160a01b031690811561058657335f52600160205260405f20825f526020528060405f20556040519081527f8c5be1e5ebec7d5bd14f71427d1e84f3dd0314c0f7b2291e5b200ac8c7c3b92560203392a3602060405160018152f35b34610147575f366003190112610147576040515f6003548060011c90600181168015610870575b6020831081146102e3578285529081156102bf57506001146108125761025d8361025181850382610908565b91905060035f527fc2575a0e9e593c00f959f8c92f12db2869c3395a3b0502d05e2516446f71f85b915f905b80821061085657509091508101602001610251610241565b91926001816020925483858801015201910190929161083e565b91607f16916107e6565b34610147575f366003190112610147576020907f00000000000000000000000000000000000000000000000000000000000000008152f35b602060409281835280519182918282860152018484015e5f828201840152601f01601f1916010190565b600435906001600160a01b038216820361014757565b602435906001600160a01b038216820361014757565b90601f8019910116810190811067ffffffffffffffff82111761092a57604052565b634e487b7160e01b5f52604160045260245ffd5b8181029291811591840414171561047e57565b600254806109615750620186a090565b6005546040516370a0823160e01b815230600482015290602090829060249082906001600160a01b03165afa908115610a07575f916109d5575b50620186a0810290808204620186a0149015171561047e57816109bd91610ad0565b5f1981019190821161047e576109d291610a12565b90565b90506020813d6020116109ff575b816109f060209383610908565b8101031261014757515f61099b565b3d91506109e3565b6040513d5f823e3d90fd5b8115610a1c570490565b634e487b7160e01b5f52601260045260245ffd5b60025480610a405750620186a090565b6005546040516370a0823160e01b81523060048201529190602090839060249082906001600160a01b03165afa918215610a07575f92610a9c575b50620186a0820291808304620186a0149015171561047e576109d291610a12565b9091506020813d602011610ac8575b81610ab860209383610908565b810103126101475751905f610a7b565b3d9150610aab565b9190820180921161047e57565b9190820391821161047e57565b7f000000000000000000000000000000000000000000000000000000000000000091610b877f0000000000000000000000000000000000000000000000000000000000000000610b81610b7a610b73610b6d610b46858a610ad0565b7f000000000000000000000000000000000000000000000000000000000000000090610ad0565b87610e8d565b9686610e8d565b8096610add565b93610e8d565b80831015610b9c57506109d2825b8093610add565b6109d290610b95565b9190620186a0610bbc610bb6610a30565b8361093e565b04926001600160a01b0316908115610cd157815f525f60205260405f2054818110610cb857610c4d610c48955f857fddf252ad1be2c89b69c2b068fc378daa952ba7f163c4a11628f55a4df523b3ef602087610c4898610c8398610cb69b87528684520360408620558060025403600255604051908152a3610c3d81610aea565b958199928794610add565b610add565b6005549095907f0000000000000000000000000000000000000000000000000000000000000000906001600160a01b0316610ce4565b6005547f0000000000000000000000000000000000000000000000000000000000000000906001600160a01b0316610ce4565b565b8263391434e360e21b5f5260045260245260445260645ffd5b634b637e8f60e11b5f525f60045260245ffd5b60405163a9059cbb60e01b60208201526001600160a01b039092166024830152604480830193909352918152610cb691610433606483610908565b916001600160a01b03831691908215610cd1576001600160a01b038216938415610e1d5781610d4d91610ba5565b507f0000000000000000000000000000000000000000000000000000000000000000620186a00390620186a0821161047e577f4d417583e4a0af5dd906124b4058e802a36b49fb64b2c6a93ae325ed40b97f7292610e10620186a0610e08610e02610ddb6040977f000000000000000000000000000000000000000000000000000000000000000090610add565b7f000000000000000000000000000000000000000000000000000000000000000090610add565b8561093e565b048092610e30565b82519182526020820152a3565b63ec442f0560e01b5f525f60045260245ffd5b6001600160a01b0316908115610e1d577fddf252ad1be2c89b69c2b068fc378daa952ba7f163c4a11628f55a4df523b3ef602082610e715f94600254610ad0565b60025584845283825260408420818154019055604051908152a3565b90610e979161093e565b620186a081019081811161047e576201869f0190811161047e57620186a0900490565b81516001600160a01b03909116915f91829160200182855af13d15610f61573d67ffffffffffffffff811161092a57610f159160405191610f056020601f19601f8401160184610908565b82523d5f602084013e5b83610f6d565b8051908115159182610f3d575b5050610f2b5750565b635274afe760e01b5f5260045260245ffd5b81925090602091810103126101475760200151801590811503610147575f80610f22565b610f1590606090610f0f565b90610f915750805115610f8257805190602001fd5b630a12f52160e11b5f5260045ffd5b81511580610fc2575b610fa2575090565b639996b31560e01b5f9081526001600160a01b0391909116600452602490fd5b50803b15610f9a56fea2646970667358221220f887910979dc3aa4b4f67067a16d2b77cef1878ffcac04da51927fa5fa287fbb64736f6c634300081a003360806040523461034057610baf8038038061001981610344565b9283398101906060818303126103405780516001600160401b0381116103405782610045918301610369565b60208201519092906001600160401b03811161034057604091610069918401610369565b9101516001600160a01b038116908190036103405782516001600160401b03811161025157600354600181811c91168015610336575b602082101461023357601f81116102d3575b506020601f821160011461027057819293945f92610265575b50508160011b915f199060031b1c1916176003555b81516001600160401b03811161025157600454600181811c91168015610247575b602082101461023357601f81116101d0575b50602092601f821160011461016f57928192935f92610164575b50508160011b915f199060031b1c1916176004555b600580546001600160a01b0319169190911790556040516107f490816103bb8239f35b015190505f8061012c565b601f1982169360045f52805f20915f5b8681106101b857508360019596106101a0575b505050811b01600455610141565b01515f1960f88460031b161c191690555f8080610192565b9192602060018192868501518155019401920161017f565b60045f527f8a35acfbc15ff81a39ae7d344fd709f28e8600b4aa8c65c6b64bfe7fe36bd19b601f830160051c81019160208410610229575b601f0160051c01905b81811061021e5750610112565b5f8155600101610211565b9091508190610208565b634e487b7160e01b5f52602260045260245ffd5b90607f1690610100565b634e487b7160e01b5f52604160045260245ffd5b015190505f806100ca565b601f1982169060035f52805f20915f5b8181106102bb575095836001959697106102a3575b505050811b016003556100df565b01515f1960f88460031b161c191690555f8080610295565b9192602060018192868b015181550194019201610280565b60035f527fc2575a0e9e593c00f959f8c92f12db2869c3395a3b0502d05e2516446f71f85b601f830160051c8101916020841061032c575b601f0160051c01905b81811061032157506100b1565b5f8155600101610314565b909150819061030b565b90607f169061009f565b5f80fd5b6040519190601f01601f191682016001600160401b0381118382101761025157604052565b81601f82011215610340578051906001600160401b03821161025157610398601f8301601f1916602001610344565b928284526020838301011161034057815f9260208093018386015e830101529056fe6080806040526004361015610012575f80fd5b5f3560e01c90816306fdde03146105b657508063095ea7b31461053457806318160ddd1461051757806323b872dd14610437578063313ce5671461041c57806340c10f191461036357806370a082311461032c57806395d89b41146102115780639dc29fac1461014d578063a9059cbb1461011c578063ab572650146100f45763dd62ed3e146100a0575f80fd5b346100f05760403660031901126100f0576100b96106af565b6100c16106c5565b6001600160a01b039182165f908152600160209081526040808320949093168252928352819020549051908152f35b5f80fd5b346100f0575f3660031901126100f0576005546040516001600160a01b039091168152602090f35b346100f05760403660031901126100f0576101426101386106af565b6024359033610727565b602060405160018152f35b346100f05760403660031901126100f0576101666106af565b6024359061017f60018060a01b036005541633146106db565b6001600160a01b031680156101fe57805f525f60205260405f20548281106101e5576020835f947fddf252ad1be2c89b69c2b068fc378daa952ba7f163c4a11628f55a4df523b3ef938587528684520360408620558060025403600255604051908152a3005b9063391434e360e21b5f5260045260245260445260645ffd5b634b637e8f60e11b5f525f60045260245ffd5b346100f0575f3660031901126100f0576040515f6004548060011c90600181168015610322575b60208310811461030e578285529081156102f2575060011461029d575b50819003601f01601f191681019067ffffffffffffffff8211818310176102895761028582918260405282610685565b0390f35b634e487b7160e01b5f52604160045260245ffd5b905060045f527f8a35acfbc15ff81a39ae7d344fd709f28e8600b4aa8c65c6b64bfe7fe36bd19b5f905b8282106102dc57506020915082010182610255565b60018160209254838588010152019101906102c7565b90506020925060ff191682840152151560051b82010182610255565b634e487b7160e01b5f52602260045260245ffd5b91607f1691610238565b346100f05760203660031901126100f0576001600160a01b0361034d6106af565b165f525f602052602060405f2054604051908152f35b346100f05760403660031901126100f05761037c6106af565b6024359061039560018060a01b036005541633146106db565b6001600160a01b031690811561040957600254908082018092116103f55760207fddf252ad1be2c89b69c2b068fc378daa952ba7f163c4a11628f55a4df523b3ef915f9360025584845283825260408420818154019055604051908152a3005b634e487b7160e01b5f52601160045260245ffd5b63ec442f0560e01b5f525f60045260245ffd5b346100f0575f3660031901126100f057602060405160128152f35b346100f05760603660031901126100f0576104506106af565b6104586106c5565b6001600160a01b0382165f818152600160208181526040808420338552909152909120549193604435939290918101610497575b506101429350610727565b8381106104fc5784156104e95733156104d657610142945f52600160205260405f2060018060a01b0333165f526020528360405f20910390558461048c565b634a1406b160e11b5f525f60045260245ffd5b63e602df0560e01b5f525f60045260245ffd5b8390637dc7a0d960e11b5f523360045260245260445260645ffd5b346100f0575f3660031901126100f0576020600254604051908152f35b346100f05760403660031901126100f05761054d6106af565b6024359033156104e9576001600160a01b03169081156104d657335f52600160205260405f20825f526020528060405f20556040519081527f8c5be1e5ebec7d5bd14f71427d1e84f3dd0314c0f7b2291e5b200ac8c7c3b92560203392a3602060405160018152f35b346100f0575f3660031901126100f0575f6003548060011c9060018116801561067b575b60208310811461030e578285529081156102f257506001146106265750819003601f01601f191681019067ffffffffffffffff8211818310176102895761028582918260405282610685565b905060035f527fc2575a0e9e593c00f959f8c92f12db2869c3395a3b0502d05e2516446f71f85b5f905b82821061066557506020915082010182610255565b6001816020925483858801015201910190610650565b91607f16916105da565b602060409281835280519182918282860152018484015e5f828201840152601f01601f1916010190565b600435906001600160a01b03821682036100f057565b602435906001600160a01b03821682036100f057565b156106e257565b60405162461bcd60e51b815260206004820152601960248201527f43616c6c6572206973206e6f74207468652072656163746f72000000000000006044820152606490fd5b6001600160a01b03169081156101fe576001600160a01b031691821561040957815f525f60205260405f20548181106107a557817fddf252ad1be2c89b69c2b068fc378daa952ba7f163c4a11628f55a4df523b3ef92602092855f525f84520360405f2055845f525f825260405f20818154019055604051908152a3565b8263391434e360e21b5f5260045260245260445260645ffdfea2646970667358221220c6d73d2b18ed8657a091779c3ce4fc3613f94e0f291d6d5fd5e453b79d533b7e64736f6c634300081a0033a2646970667358221220b360c915949c3e1e5d64cb3ee45e9b0186404c5f31c97a5064a9fa8db2cba25d64736f6c634300081a0033","linkReferences":{}},"methodIdentifiers":{"createGluonReactor(address,string,string,string,string,uint256,address,uint256,uint256,uint256,uint256,uint256,uint256,uint256,uint256,uint256,uint256)":"5d6a5bda","getGluonReactors()":"c8b91ea9","gluonReactors(uint256)":"4a7e2a90"},"storageLayout":{"storage":[{"astId":11584,"contract":"src/GluonTokenFactory.sol:GluonTokenFactory","label":"gluonReactors","offset":0,"slot":"0","type":"t_array(t_contract(GluonReactor)11577)dyn_storage"}],"types":{"t_array(t_contract(GluonReactor)11577)dyn_storage":{"encoding":"dynamic_array","label":"contract GluonReactor[]","numberOfBytes":"32","base":"t_contract(GluonReactor)11577"},"t_contract(GluonReactor)11577":{"encoding":"inplace","label":"contract GluonReactor","numberOfBytes":"20"}}},"id":12}